{
  "contractName": "DAO",
  "abi": [
    {
      "inputs": [
        {
          "internalType": "uint256",
          "name": "_contributionTime",
          "type": "uint256"
        },
        {
          "internalType": "uint256",
          "name": "_voteTime",
          "type": "uint256"
        },
        {
          "internalType": "uint256",
          "name": "_quorum",
          "type": "uint256"
        }
      ],
      "payable": false,
      "stateMutability": "nonpayable",
      "type": "constructor"
    },
    {
      "constant": true,
      "inputs": [],
      "name": "admin",
      "outputs": [
        {
          "internalType": "address",
          "name": "",
          "type": "address"
        }
      ],
      "payable": false,
      "stateMutability": "view",
      "type": "function"
    },
    {
      "constant": true,
      "inputs": [],
      "name": "avaliableFunds",
      "outputs": [
        {
          "internalType": "uint256",
          "name": "",
          "type": "uint256"
        }
      ],
      "payable": false,
      "stateMutability": "view",
      "type": "function"
    },
    {
      "constant": true,
      "inputs": [],
      "name": "contributionEnd",
      "outputs": [
        {
          "internalType": "uint256",
          "name": "",
          "type": "uint256"
        }
      ],
      "payable": false,
      "stateMutability": "view",
      "type": "function"
    },
    {
      "constant": true,
      "inputs": [
        {
          "internalType": "address",
          "name": "",
          "type": "address"
        }
      ],
      "name": "investors",
      "outputs": [
        {
          "internalType": "bool",
          "name": "",
          "type": "bool"
        }
      ],
      "payable": false,
      "stateMutability": "view",
      "type": "function"
    },
    {
      "constant": true,
      "inputs": [],
      "name": "nextProposalId",
      "outputs": [
        {
          "internalType": "uint256",
          "name": "",
          "type": "uint256"
        }
      ],
      "payable": false,
      "stateMutability": "view",
      "type": "function"
    },
    {
      "constant": true,
      "inputs": [
        {
          "internalType": "uint256",
          "name": "",
          "type": "uint256"
        }
      ],
      "name": "proposals",
      "outputs": [
        {
          "internalType": "uint256",
          "name": "id",
          "type": "uint256"
        },
        {
          "internalType": "string",
          "name": "name",
          "type": "string"
        },
        {
          "internalType": "uint256",
          "name": "amount",
          "type": "uint256"
        },
        {
          "internalType": "address payable",
          "name": "recipient",
          "type": "address"
        },
        {
          "internalType": "uint256",
          "name": "vote",
          "type": "uint256"
        },
        {
          "internalType": "uint256",
          "name": "end",
          "type": "uint256"
        },
        {
          "internalType": "bool",
          "name": "exexcuted",
          "type": "bool"
        }
      ],
      "payable": false,
      "stateMutability": "view",
      "type": "function"
    },
    {
      "constant": true,
      "inputs": [],
      "name": "quorum",
      "outputs": [
        {
          "internalType": "uint256",
          "name": "",
          "type": "uint256"
        }
      ],
      "payable": false,
      "stateMutability": "view",
      "type": "function"
    },
    {
      "constant": true,
      "inputs": [
        {
          "internalType": "address",
          "name": "",
          "type": "address"
        }
      ],
      "name": "shares",
      "outputs": [
        {
          "internalType": "uint256",
          "name": "",
          "type": "uint256"
        }
      ],
      "payable": false,
      "stateMutability": "view",
      "type": "function"
    },
    {
      "constant": true,
      "inputs": [],
      "name": "totalShares",
      "outputs": [
        {
          "internalType": "uint256",
          "name": "",
          "type": "uint256"
        }
      ],
      "payable": false,
      "stateMutability": "view",
      "type": "function"
    },
    {
      "constant": true,
      "inputs": [],
      "name": "voteTime",
      "outputs": [
        {
          "internalType": "uint256",
          "name": "",
          "type": "uint256"
        }
      ],
      "payable": false,
      "stateMutability": "view",
      "type": "function"
    },
    {
      "constant": true,
      "inputs": [
        {
          "internalType": "address",
          "name": "",
          "type": "address"
        },
        {
          "internalType": "uint256",
          "name": "",
          "type": "uint256"
        }
      ],
      "name": "votes",
      "outputs": [
        {
          "internalType": "bool",
          "name": "",
          "type": "bool"
        }
      ],
      "payable": false,
      "stateMutability": "view",
      "type": "function"
    },
    {
      "constant": false,
      "inputs": [],
      "name": "contribute",
      "outputs": [],
      "payable": true,
      "stateMutability": "payable",
      "type": "function"
    },
    {
      "constant": false,
      "inputs": [
        {
          "internalType": "uint256",
          "name": "amount",
          "type": "uint256"
        }
      ],
      "name": "redeemShare",
      "outputs": [],
      "payable": false,
      "stateMutability": "nonpayable",
      "type": "function"
    },
    {
      "constant": false,
      "inputs": [
        {
          "internalType": "uint256",
          "name": "amount",
          "type": "uint256"
        },
        {
          "internalType": "address",
          "name": "to",
          "type": "address"
        }
      ],
      "name": "transferShare",
      "outputs": [],
      "payable": false,
      "stateMutability": "nonpayable",
      "type": "function"
    },
    {
      "constant": false,
      "inputs": [
        {
          "internalType": "string",
          "name": "_name",
          "type": "string"
        },
        {
          "internalType": "uint256",
          "name": "amount",
          "type": "uint256"
        },
        {
          "internalType": "address payable",
          "name": "_recipient",
          "type": "address"
        }
      ],
      "name": "createProposal",
      "outputs": [],
      "payable": false,
      "stateMutability": "nonpayable",
      "type": "function"
    },
    {
      "constant": false,
      "inputs": [
        {
          "internalType": "uint256",
          "name": "proposalId",
          "type": "uint256"
        }
      ],
      "name": "vote",
      "outputs": [],
      "payable": false,
      "stateMutability": "nonpayable",
      "type": "function"
    },
    {
      "constant": false,
      "inputs": [
        {
          "internalType": "uint256",
          "name": "proposalId",
          "type": "uint256"
        }
      ],
      "name": "executeProposal",
      "outputs": [],
      "payable": false,
      "stateMutability": "nonpayable",
      "type": "function"
    },
    {
      "constant": false,
      "inputs": [
        {
          "internalType": "uint256",
          "name": "amount",
          "type": "uint256"
        },
        {
          "internalType": "address payable",
          "name": "to",
          "type": "address"
        }
      ],
      "name": "withdrawEther",
      "outputs": [],
      "payable": false,
      "stateMutability": "nonpayable",
      "type": "function"
    }
  ],
  "bytecode": "0x6080604052600160075534801561001557600080fd5b5060405161191b38038061191b8339818101604052606081101561003857600080fd5b81019080805190602001909291908051906020019092919080519060200190929190505050824201600681905550816008819055508060098190555033600a60006101000a81548173ffffffffffffffffffffffffffffffffffffffff021916908373ffffffffffffffffffffffffffffffffffffffff160217905550505050611854806100c76000396000f3fe6080604052600436106101095760003560e01c8063868643df11610095578063ce56c45411610064578063ce56c454146105cd578063ce7c2ac214610628578063d151b5161461068d578063d7bb99ba146106b8578063f851a440146106c257610109565b8063868643df146104c95780639f2524ee14610504578063abdfa14c14610577578063bcf93dd6146105a257610109565b80631703a018116100dc5780631703a018146102ed5780632ab09d14146103185780633a98ef39146103435780636ac1e01f1461036e5780636f7bc9be1461046057610109565b80630121b93f1461010e578063013cf08b14610149578063039383e6146102575780630d61b519146102b2575b600080fd5b34801561011a57600080fd5b506101476004803603602081101561013157600080fd5b8101908080359060200190929190505050610719565b005b34801561015557600080fd5b506101826004803603602081101561016c57600080fd5b81019080803590602001909291905050506109c9565b60405180888152602001806020018781526020018673ffffffffffffffffffffffffffffffffffffffff1673ffffffffffffffffffffffffffffffffffffffff16815260200185815260200184815260200183151515158152602001828103825288818151815260200191508051906020019080838360005b838110156102165780820151818401526020810190506101fb565b50505050905090810190601f1680156102435780820380516001836020036101000a031916815260200191505b509850505050505050505060405180910390f35b34801561026357600080fd5b506102b06004803603604081101561027a57600080fd5b8101908080359060200190929190803573ffffffffffffffffffffffffffffffffffffffff169060200190929190505050610ad0565b005b3480156102be57600080fd5b506102eb600480360360208110156102d557600080fd5b8101908080359060200190929190505050610c7a565b005b3480156102f957600080fd5b50610302610ec2565b6040518082815260200191505060405180910390f35b34801561032457600080fd5b5061032d610ec8565b6040518082815260200191505060405180910390f35b34801561034f57600080fd5b50610358610ece565b6040518082815260200191505060405180910390f35b34801561037a57600080fd5b5061045e6004803603606081101561039157600080fd5b81019080803590602001906401000000008111156103ae57600080fd5b8201836020820111156103c057600080fd5b803590602001918460018302840111640100000000831117156103e257600080fd5b91908080601f016020809104026020016040519081016040528093929190818152602001838380828437600081840152601f19601f82011690508083019250505050505050919291929080359060200190929190803573ffffffffffffffffffffffffffffffffffffffff169060200190929190505050610ed4565b005b34801561046c57600080fd5b506104af6004803603602081101561048357600080fd5b81019080803573ffffffffffffffffffffffffffffffffffffffff16906020019092919050505061114f565b604051808215151515815260200191505060405180910390f35b3480156104d557600080fd5b50610502600480360360208110156104ec57600080fd5b810190808035906020019092919050505061116f565b005b34801561051057600080fd5b5061055d6004803603604081101561052757600080fd5b81019080803573ffffffffffffffffffffffffffffffffffffffff16906020019092919080359060200190929190505050611343565b604051808215151515815260200191505060405180910390f35b34801561058357600080fd5b5061058c611372565b6040518082815260200191505060405180910390f35b3480156105ae57600080fd5b506105b7611378565b6040518082815260200191505060405180910390f35b3480156105d957600080fd5b50610626600480360360408110156105f057600080fd5b8101908080359060200190929190803573ffffffffffffffffffffffffffffffffffffffff16906020019092919050505061137e565b005b34801561063457600080fd5b506106776004803603602081101561064b57600080fd5b81019080803573ffffffffffffffffffffffffffffffffffffffff16906020019092919050505061144f565b6040518082815260200191505060405180910390f35b34801561069957600080fd5b506106a2611467565b6040518082815260200191505060405180910390f35b6106c061146d565b005b3480156106ce57600080fd5b506106d761158d565b604051808273ffffffffffffffffffffffffffffffffffffffff1673ffffffffffffffffffffffffffffffffffffffff16815260200191505060405180910390f35b600115156000803373ffffffffffffffffffffffffffffffffffffffff1673ffffffffffffffffffffffffffffffffffffffff16815260200190815260200160002060009054906101000a900460ff161515146107de576040517f08c379a000000000000000000000000000000000000000000000000000000000815260040180806020018281038252600e8152602001807f6f6e6c7920696e766573746f727300000000000000000000000000000000000081525060200191505060405180910390fd5b600060036000838152602001908152602001600020905060001515600260003373ffffffffffffffffffffffffffffffffffffffff1673ffffffffffffffffffffffffffffffffffffffff168152602001908152602001600020600084815260200190815260200160002060009054906101000a900460ff161515146108af576040517f08c379a000000000000000000000000000000000000000000000000000000000815260040180806020018281038252602a81526020018061172c602a913960400191505060405180910390fd5b8060050154421061090b576040517f08c379a00000000000000000000000000000000000000000000000000000000081526004018080602001828103825260258152602001806117856025913960400191505060405180910390fd5b6001600260003373ffffffffffffffffffffffffffffffffffffffff1673ffffffffffffffffffffffffffffffffffffffff168152602001908152602001600020600084815260200190815260200160002060006101000a81548160ff021916908315150217905550600160003373ffffffffffffffffffffffffffffffffffffffff1673ffffffffffffffffffffffffffffffffffffffff1681526020019081526020016000205481600401600082825401925050819055505050565b6003602052806000526040600020600091509050806000015490806001018054600181600116156101000203166002900480601f016020809104026020016040519081016040528092919081815260200182805460018160011615610100020316600290048015610a7b5780601f10610a5057610100808354040283529160200191610a7b565b820191906000526020600020905b815481529060010190602001808311610a5e57829003601f168201915b5050505050908060020154908060030160009054906101000a900473ffffffffffffffffffffffffffffffffffffffff16908060040154908060050154908060060160009054906101000a900460ff16905087565b81600160003373ffffffffffffffffffffffffffffffffffffffff1673ffffffffffffffffffffffffffffffffffffffff168152602001908152602001600020541015610b85576040517f08c379a00000000000000000000000000000000000000000000000000000000081526004018080602001828103825260118152602001807f6e6f7420656e6f7567682073686172657300000000000000000000000000000081525060200191505060405180910390fd5b81600160003373ffffffffffffffffffffffffffffffffffffffff1673ffffffffffffffffffffffffffffffffffffffff1681526020019081526020016000206000828254039250508190555081600160008373ffffffffffffffffffffffffffffffffffffffff1673ffffffffffffffffffffffffffffffffffffffff1681526020019081526020016000206000828254019250508190555060016000808373ffffffffffffffffffffffffffffffffffffffff1673ffffffffffffffffffffffffffffffffffffffff16815260200190815260200160002060006101000a81548160ff0219169083151502179055505050565b600a60009054906101000a900473ffffffffffffffffffffffffffffffffffffffff1673ffffffffffffffffffffffffffffffffffffffff163373ffffffffffffffffffffffffffffffffffffffff1614610d3d576040517f08c379a000000000000000000000000000000000000000000000000000000000815260040180806020018281038252600a8152602001807f6f6e6c792061646d696e0000000000000000000000000000000000000000000081525060200191505060405180910390fd5b60006003600083815260200190815260200160002090508060050154421015610db1576040517f08c379a00000000000000000000000000000000000000000000000000000000081526004018080602001828103825260278152602001806117d26027913960400191505060405180910390fd5b600015158160060160009054906101000a900460ff16151514610e1f576040517f08c379a00000000000000000000000000000000000000000000000000000000081526004018080602001828103825260288152602001806117aa6028913960400191505060405180910390fd5b600954600454606483600401540281610e3457fe5b041015610e8c576040517f08c379a000000000000000000000000000000000000000000000000000000000815260040180806020018281038252602f815260200180611756602f913960400191505060405180910390fd5b610ebe81600201548260030160009054906101000a900473ffffffffffffffffffffffffffffffffffffffff166115b3565b5050565b60095481565b60075481565b60045481565b600115156000803373ffffffffffffffffffffffffffffffffffffffff1673ffffffffffffffffffffffffffffffffffffffff16815260200190815260200160002060009054906101000a900460ff16151514610f99576040517f08c379a000000000000000000000000000000000000000000000000000000000815260040180806020018281038252600e8152602001807f6f6e6c7920696e766573746f727300000000000000000000000000000000000081525060200191505060405180910390fd5b816005541015611011576040517f08c379a000000000000000000000000000000000000000000000000000000000815260040180806020018281038252600e8152602001807f616d6f756e7420746f6f2062696700000000000000000000000000000000000081525060200191505060405180910390fd5b6040518060e0016040528060075481526020018481526020018381526020018273ffffffffffffffffffffffffffffffffffffffff16815260200160008152602001600854420181526020016000151581525060036000600754815260200190815260200160002060008201518160000155602082015181600101908051906020019061109f929190611686565b506040820151816002015560608201518160030160006101000a81548173ffffffffffffffffffffffffffffffffffffffff021916908373ffffffffffffffffffffffffffffffffffffffff1602179055506080820151816004015560a0820151816005015560c08201518160060160006101000a81548160ff02191690831515021790555090505081600560008282540392505081905550600760008154809291906001019190505550505050565b60006020528060005260406000206000915054906101000a900460ff1681565b80600160003373ffffffffffffffffffffffffffffffffffffffff1673ffffffffffffffffffffffffffffffffffffffff168152602001908152602001600020541015611224576040517f08c379a00000000000000000000000000000000000000000000000000000000081526004018080602001828103825260118152602001807f6e6f7420656e6f7567682073686172657300000000000000000000000000000081525060200191505060405180910390fd5b80600554101561129c576040517f08c379a000000000000000000000000000000000000000000000000000000000815260040180806020018281038252601a8152602001807f6e6f7420656e6f75676820617661696c61626c652066756e647300000000000081525060200191505060405180910390fd5b80600160003373ffffffffffffffffffffffffffffffffffffffff1673ffffffffffffffffffffffffffffffffffffffff16815260200190815260200160002060008282540392505081905550806005600082825403925050819055503373ffffffffffffffffffffffffffffffffffffffff166108fc829081150290604051600060405180830381858888f1935050505015801561133f573d6000803e3d6000fd5b5050565b60026020528160005260406000206020528060005260406000206000915091509054906101000a900460ff1681565b60055481565b60085481565b600a60009054906101000a900473ffffffffffffffffffffffffffffffffffffffff1673ffffffffffffffffffffffffffffffffffffffff163373ffffffffffffffffffffffffffffffffffffffff1614611441576040517f08c379a000000000000000000000000000000000000000000000000000000000815260040180806020018281038252600a8152602001807f6f6e6c792061646d696e0000000000000000000000000000000000000000000081525060200191505060405180910390fd5b61144b82826115b3565b5050565b60016020528060005260406000206000915090505481565b60065481565b60065442106114c7576040517f08c379a00000000000000000000000000000000000000000000000000000000081526004018080602001828103825260278152602001806117f96027913960400191505060405180910390fd5b60016000803373ffffffffffffffffffffffffffffffffffffffff1673ffffffffffffffffffffffffffffffffffffffff16815260200190815260200160002060006101000a81548160ff02191690831515021790555034600160003373ffffffffffffffffffffffffffffffffffffffff1673ffffffffffffffffffffffffffffffffffffffff168152602001908152602001600020600082825401925050819055503460046000828254019250508190555034600560008282540192505081905550565b600a60009054906101000a900473ffffffffffffffffffffffffffffffffffffffff1681565b60055482111561162b576040517f08c379a00000000000000000000000000000000000000000000000000000000081526004018080602001828103825260198152602001807f6e6f7420656e6f75676820617661696c61626c6546756e64730000000000000081525060200191505060405180910390fd5b816005600082825403925050819055508073ffffffffffffffffffffffffffffffffffffffff166108fc839081150290604051600060405180830381858888f19350505050158015611681573d6000803e3d6000fd5b505050565b828054600181600116156101000203166002900490600052602060002090601f016020900481019282601f106116c757805160ff19168380011785556116f5565b828001600101855582156116f5579182015b828111156116f45782518255916020019190600101906116d9565b5b5090506117029190611706565b5090565b61172891905b8082111561172457600081600090555060010161170c565b5090565b9056fe696e766573746f722063616e206f6e6c7920766f7465206f6e636520666f7220612070726f706f73616c63616e6e6f7420657865637574652070726f706f73616c207769746820766f7465732062656c6f772071756f72756d63616e206f6e6c7920766f746520756e74696c2070726f706f73616c20656e64206461746563616e6e6f7420657865637574652070726f706f73616c20616c726561647920657865637574656463616e6e6f7420657865637574652070726f706f73616c206265666f726520656e64206461746563616e6e6f7420636f6e7472696275746520616674657220636f6e747269627574696f6e456e64a265627a7a72315820bf5082a81aad99bee66e1802038042feab1569e4d58a2433c89ffaba275bc5f564736f6c63430005100032",
  "source": "pragma solidity >=0.4.16 <0.8.0;\r\n\r\n\r\ncontract DAO {\r\n    \r\n   struct Proposal{\r\n       uint id;\r\n       string name;\r\n       uint amount;\r\n       address payable recipient;\r\n       uint vote;\r\n       uint end;\r\n       bool exexcuted;\r\n   } \r\n   \r\n   mapping(address=> bool) public investors;\r\n   mapping(address=>uint) public shares;\r\n   mapping (address=>mapping(uint=>bool)) public votes;\r\n   mapping(uint=>Proposal) public proposals;\r\n   \r\n   uint public totalShares;\r\n   uint public avaliableFunds;\r\n   uint public contributionEnd;\r\n   uint public nextProposalId=1;\r\n   uint public voteTime;\r\n   uint public quorum;\r\n   address public admin;\r\n   \r\n   constructor (uint _contributionTime,uint _voteTime,uint _quorum) public {\r\n       contributionEnd=block.timestamp+_contributionTime;\r\n       voteTime=_voteTime;\r\n       quorum=_quorum;\r\n       admin=msg.sender;\r\n   }\r\n   \r\n   function contribute()payable external {\r\n       require(block.timestamp<contributionEnd,'cannot contribute after contributionEnd');\r\n       \r\n       investors[msg.sender]=true;\r\n       shares[msg.sender]+=msg.value;\r\n       totalShares+=msg.value;\r\n       avaliableFunds+=msg.value;\r\n   }\r\n   \r\n   \r\n   function redeemShare(uint amount) external{\r\n       require(shares[msg.sender]>=amount,'not enough shares');\r\n       require(avaliableFunds>=amount,'not enough available funds');\r\n       \r\n       shares[msg.sender]-=amount;\r\n       avaliableFunds-=amount;\r\n       msg.sender.transfer(amount);\r\n   }\r\n   \r\n   function transferShare(uint amount,address to)external{\r\n       require(shares[msg.sender]>=amount,'not enough shares');\r\n       shares[msg.sender]-=amount;\r\n       shares[to]+=amount;\r\n       investors[to]=true;\r\n   }\r\n   \r\n   function createProposal(string memory _name,uint amount,address payable _recipient) public onlyInvestors{\r\n       require(avaliableFunds>=amount,'amount too big');\r\n       proposals[nextProposalId]=Proposal(\r\n           nextProposalId,\r\n           _name,\r\n           amount,\r\n           _recipient,\r\n           0,\r\n           block.timestamp+voteTime,\r\n           false\r\n           );\r\n           avaliableFunds-=amount;\r\n           nextProposalId++;\r\n   }\r\n   \r\n   function vote(uint proposalId) external onlyInvestors{\r\n       Proposal storage proposal=proposals[proposalId];\r\n       require(votes[msg.sender][proposalId]==false,'investor can only vote once for a proposal');\r\n       require(block.timestamp < proposal.end,'can only vote until proposal end date');\r\n       \r\n       votes[msg.sender][proposalId]=true;\r\n       proposal.vote+=shares[msg.sender];\r\n   }\r\n   \r\n   function executeProposal(uint proposalId) external onlyAdmin{\r\n       Proposal storage proposal=proposals[proposalId];\r\n       require(block.timestamp >= proposal.end,'cannot execute proposal before end date');\r\n       require(proposal.exexcuted==false,'cannot execute proposal already executed');\r\n       require( ((proposal.vote * 100) / totalShares) >=quorum,'cannot execute proposal with votes below quorum');\r\n       _transferEthers(proposal.amount,proposal.recipient);\r\n       \r\n   }\r\n   \r\n   function _transferEthers(uint amount,address payable to)internal{\r\n       require(amount<=avaliableFunds,'not enough availableFunds');\r\n       \r\n       avaliableFunds-=amount;\r\n       to.transfer(amount);\r\n   }\r\n   \r\n   function withdrawEther(uint amount,address payable to)external onlyAdmin{\r\n       _transferEthers(amount,to);\r\n   }\r\n   \r\n   \r\n   //fallback function\r\n//    fallback()  external{\r\n//       // avaliableFunds+=msg.value;\r\n//    }\r\n   \r\n//    receive() payable external{\r\n//        avaliableFunds+=msg.value;\r\n//    }\r\n   \r\n  \r\n   \r\n   modifier onlyInvestors(){\r\n       require(investors[msg.sender]==true,'only investors');\r\n       _;\r\n   }\r\n   \r\n   \r\n   modifier onlyAdmin(){\r\n       require(msg.sender==admin,'only admin');\r\n       _;\r\n   }\r\n   \r\n   \r\n   \r\n    \r\n}",
  "sourcePath": "C:/blockchain/ethereum/projects/dao/contracts/DAO.sol",
  "compiler": {
    "name": "solc",
    "version": "0.5.16+commit.9c3226ce.Emscripten.clang"
  },
  "schemaVersion": "3.0.22",
  "updatedAt": "2020-09-15T19:42:22.432Z",
  "networkType": "ethereum",
  "devdoc": {
    "methods": {}
  },
  "userdoc": {
    "methods": {}
  }
}